:020000021000EC
:10FC000001C010C1112484B7882369F0982F9A701D
:10FC1000923049F081FF02C097EF94BF282E80E018
:10FC2000ECD00C94000082E08093C80088E18093BF
:10FC3000C90086E08093CA008EE18093CC008EE0FC
:10FC4000DCD0219A299A43E0D42ECC24C39455E0E9
:10FC5000952E61E1862EC3D0813479F4C0D0C82FAF
:10FC6000D2D0C23811F480E004C088E0C13809F075
:10FC700083E0AED080E1ACD0EECF823419F484E1E1
:10FC8000CAD0F8CF853411F485E0FACF853581F4F8
:10FC9000A6D0082FA4D0182F87FF07C08BB781608C
:10FCA0008BBF000F111FAFD0E5CF8BB78E7FF8CF82
:10FCB000863579F494D08D3451F491D0CBB78FD070
:10FCC000C170880F8C2B8BBF81E0A5D0CCCF83E097
:10FCD000FCCF843609F04AC082D0C82FD0E0DC2F98
:10FCE000CC277DD0C82B7BD0782E5E01B394E12C3D
:10FCF000FF24F39474D0F70181937F01EA15FB058B
:10FD0000C9F781D0F5E47F1211C0F12CE12C08C0B5
:10FD10006081C8018E0D9F1D9DD08FEFE81AF80AF3
:10FD2000F701F395CE15DF0599F7A4CFF801D7BEFB
:10FD3000E89507B600FCFDCF90E080E0F801E80F01
:10FD4000F91FDC01B3952D913C910901C7BEE895DF
:10FD500011240296C817D90789F7F80197BEE895CC
:10FD600007B600FCFDCF87BEE89584CF843709F540
:10FD700036D0C82FD0E0DC2FCC2731D0C82B2FD0E5
:10FD8000B82E41D07801F5E4BF120CC0C00FD11FCE
:10FD9000C70158D01DD08FEFE81AF80ACE15DF053D
:10FDA000B9F768CFF70187917F0112D02197D1F77A
:10FDB00061CF853739F427D08EE10AD087E908D0A2
:10FDC00086E057CF813509F06ECF88E016D06BCF33
:10FDD0009091C80095FFFCCF8093CE000895199AAA
:10FDE0008091C80087FFFCCF8091C80084FD01C0CE
:10FDF000A8958091CE00199A0895E0E6F0E098E188
:10FE0000908380830895EBDF803219F088E0F5DF7E
:10FE1000FFCF84E1DDCFCF93C82FE1DFC150E9F7F9
:10FE2000CF91F1CFFC010A0167BFE895112407B615
:10FE300000FCFDCF667029F0452B19F481E187BFE6
:10FE4000E8950895F999FECF92BD81BDF89A99275A
:10FE500080B50895262FF999FECF1FBA92BD81BDB6
:10FE600020BD0FB6F894FA9AF99A0FBE019608953C
:10FE700056657273696F6E3D382E30004F5054498D
:10FE8000424F4F545F435553544F4D5645523D30AA
:10FE9000004465766963653D61746D656761313203
:10FEA000383400465F4350553D31343331383138B2
:10FEB000324C00424947424F4F543D310042756930
:10FEC0006C743A4F637420323220323031393A3117
:10FED000393A31303A313400554152543D310042C3
:10FEE0004155445F524154453D3537363030004C22
:10FEF00045443D4231004C45445F53544152545FA8
:10FF00004F4E3D30004C45445F444154415F464CA8
:10FF10004153483D30004C45445F53544152545F77
:0AFF2000464C41534845533D300064
:02FFFE000008F9
:040000031000FC00ED
:00000001FF
